{
  "contractName": "MarketPlace",
  "abi": [
    {
      "anonymous": false,
      "inputs": [
        {
          "indexed": true,
          "internalType": "address",
          "name": "_from",
          "type": "address"
        },
        {
          "indexed": true,
          "internalType": "address",
          "name": "_to",
          "type": "address"
        },
        {
          "indexed": false,
          "internalType": "uint256",
          "name": "_value",
          "type": "uint256"
        }
      ],
      "name": "DeposerRemuneration",
      "type": "event"
    },
    {
      "anonymous": false,
      "inputs": [
        {
          "indexed": true,
          "internalType": "address",
          "name": "_to",
          "type": "address"
        },
        {
          "indexed": true,
          "internalType": "address",
          "name": "_from",
          "type": "address"
        },
        {
          "indexed": false,
          "internalType": "uint256",
          "name": "_value",
          "type": "uint256"
        }
      ],
      "name": "PayerRemuneration",
      "type": "event"
    },
    {
      "constant": true,
      "inputs": [
        {
          "internalType": "uint256",
          "name": "",
          "type": "uint256"
        }
      ],
      "name": "demandeursAccts",
      "outputs": [
        {
          "internalType": "address",
          "name": "",
          "type": "address"
        }
      ],
      "payable": false,
      "stateMutability": "view",
      "type": "function"
    },
    {
      "constant": true,
      "inputs": [
        {
          "internalType": "uint256",
          "name": "",
          "type": "uint256"
        }
      ],
      "name": "illustrateursAccts",
      "outputs": [
        {
          "internalType": "address",
          "name": "",
          "type": "address"
        }
      ],
      "payable": false,
      "stateMutability": "view",
      "type": "function"
    },
    {
      "constant": true,
      "inputs": [],
      "name": "indexDemande",
      "outputs": [
        {
          "internalType": "uint256",
          "name": "",
          "type": "uint256"
        }
      ],
      "payable": false,
      "stateMutability": "view",
      "type": "function"
    },
    {
      "constant": false,
      "inputs": [
        {
          "internalType": "string",
          "name": "nom",
          "type": "string"
        }
      ],
      "name": "inscription",
      "outputs": [],
      "payable": false,
      "stateMutability": "nonpayable",
      "type": "function"
    },
    {
      "constant": false,
      "inputs": [],
      "name": "inscriptionDemandeur",
      "outputs": [],
      "payable": false,
      "stateMutability": "nonpayable",
      "type": "function"
    },
    {
      "constant": false,
      "inputs": [
        {
          "internalType": "uint256",
          "name": "_remuneration",
          "type": "uint256"
        },
        {
          "internalType": "uint256",
          "name": "_delai",
          "type": "uint256"
        },
        {
          "internalType": "string",
          "name": "_description",
          "type": "string"
        },
        {
          "internalType": "uint256",
          "name": "_reputationMinumum",
          "type": "uint256"
        }
      ],
      "name": "ajouterDemande",
      "outputs": [],
      "payable": true,
      "stateMutability": "payable",
      "type": "function"
    },
    {
      "constant": true,
      "inputs": [
        {
          "internalType": "uint256",
          "name": "_indexDemande",
          "type": "uint256"
        }
      ],
      "name": "getDemandes",
      "outputs": [
        {
          "internalType": "uint256",
          "name": "",
          "type": "uint256"
        },
        {
          "internalType": "uint256",
          "name": "",
          "type": "uint256"
        },
        {
          "internalType": "uint256",
          "name": "",
          "type": "uint256"
        },
        {
          "internalType": "string",
          "name": "",
          "type": "string"
        },
        {
          "internalType": "uint256",
          "name": "",
          "type": "uint256"
        },
        {
          "internalType": "enum MarketPlace.EtatDemande",
          "name": "",
          "type": "uint8"
        }
      ],
      "payable": false,
      "stateMutability": "view",
      "type": "function"
    },
    {
      "constant": false,
      "inputs": [
        {
          "internalType": "uint256",
          "name": "idDemande",
          "type": "uint256"
        }
      ],
      "name": "postuler",
      "outputs": [],
      "payable": false,
      "stateMutability": "nonpayable",
      "type": "function"
    },
    {
      "constant": false,
      "inputs": [
        {
          "internalType": "uint256",
          "name": "idDemande",
          "type": "uint256"
        },
        {
          "internalType": "address",
          "name": "addressCandidat",
          "type": "address"
        }
      ],
      "name": "accepterOffre",
      "outputs": [],
      "payable": false,
      "stateMutability": "nonpayable",
      "type": "function"
    },
    {
      "constant": false,
      "inputs": [
        {
          "internalType": "uint256",
          "name": "idDemande",
          "type": "uint256"
        },
        {
          "internalType": "string",
          "name": "lienLivraison",
          "type": "string"
        }
      ],
      "name": "livraison",
      "outputs": [],
      "payable": true,
      "stateMutability": "payable",
      "type": "function"
    }
  ],
  "bytecode": "0x608060405234801561001057600080fd5b50612211806100206000396000f3fe6080604052600436106100915760003560e01c8063798519d111610059578063798519d114610192578063cbfad350146101ae578063d859b8dd146101ca578063d9125ab4146101e1578063e783a5b41461021e57610091565b8063095174fd1461009657806317286e49146100d35780634476cf59146100fe57806345ea43b0146101275780635c38e64a14610150575b600080fd5b3480156100a257600080fd5b506100bd60048036036100b89190810190611b61565b610247565b6040516100ca9190611f5a565b60405180910390f35b3480156100df57600080fd5b506100e8610283565b6040516100f59190612035565b60405180910390f35b34801561010a57600080fd5b5061012560048036036101209190810190611b1c565b610289565b005b34801561013357600080fd5b5061014e60048036036101499190810190611b61565b6104f4565b005b34801561015c57600080fd5b5061017760048036036101729190810190611b61565b610887565b60405161018996959493929190612050565b60405180910390f35b6101ac60048036036101a79190810190611bc6565b610a12565b005b6101c860048036036101c39190810190611c1e565b610dd4565b005b3480156101d657600080fd5b506101df61114e565b005b3480156101ed57600080fd5b5061020860048036036102039190810190611b61565b611322565b6040516102159190611f5a565b60405180910390f35b34801561022a57600080fd5b5061024560048036036102409190810190611b8a565b61135e565b005b6001818154811061025457fe5b906000526020600020016000915054906101000a900473ffffffffffffffffffffffffffffffffffffffff1681565b60045481565b6000803373ffffffffffffffffffffffffffffffffffffffff1673ffffffffffffffffffffffffffffffffffffffff16815260200190815260200160002060030160009054906101000a900460ff1615610318576040517f08c379a000000000000000000000000000000000000000000000000000000000815260040161030f90612015565b60405180910390fd5b336000803373ffffffffffffffffffffffffffffffffffffffff1673ffffffffffffffffffffffffffffffffffffffff16815260200190815260200160002060000160006101000a81548173ffffffffffffffffffffffffffffffffffffffff021916908373ffffffffffffffffffffffffffffffffffffffff16021790555060016000803373ffffffffffffffffffffffffffffffffffffffff1673ffffffffffffffffffffffffffffffffffffffff1681526020019081526020016000206001018190555081816000803373ffffffffffffffffffffffffffffffffffffffff1673ffffffffffffffffffffffffffffffffffffffff168152602001908152602001600020600201919061042f9291906117e4565b5060016000803373ffffffffffffffffffffffffffffffffffffffff1673ffffffffffffffffffffffffffffffffffffffff16815260200190815260200160002060030160006101000a81548160ff02191690831515021790555060013390806001815401808255809150509060018203906000526020600020016000909192909190916101000a81548173ffffffffffffffffffffffffffffffffffffffff021916908373ffffffffffffffffffffffffffffffffffffffff160217905550505050565b336000808273ffffffffffffffffffffffffffffffffffffffff1673ffffffffffffffffffffffffffffffffffffffff16815260200190815260200160002060030160009054906101000a900460ff16610583576040517f08c379a000000000000000000000000000000000000000000000000000000000815260040161057a90611f95565b60405180910390fd5b6005828154811061059057fe5b90600052602060002090600d0201600501546000803373ffffffffffffffffffffffffffffffffffffffff1673ffffffffffffffffffffffffffffffffffffffff168152602001908152602001600020600101541015610625576040517f08c379a000000000000000000000000000000000000000000000000000000000815260040161061c90611ff5565b60405180910390fd5b61062d611864565b6000803373ffffffffffffffffffffffffffffffffffffffff1673ffffffffffffffffffffffffffffffffffffffff1681526020019081526020016000206040518060800160405290816000820160009054906101000a900473ffffffffffffffffffffffffffffffffffffffff1673ffffffffffffffffffffffffffffffffffffffff1673ffffffffffffffffffffffffffffffffffffffff16815260200160018201548152602001600282018054600181600116156101000203166002900480601f01602080910402602001604051908101604052809291908181526020018280546001816001161561010002031660029004801561076f5780601f106107445761010080835404028352916020019161076f565b820191906000526020600020905b81548152906001019060200180831161075257829003601f168201915b505050505081526020016003820160009054906101000a900460ff161515151581525050905080600584815481106107a357fe5b90600052602060002090600d0201600b0160003373ffffffffffffffffffffffffffffffffffffffff1673ffffffffffffffffffffffffffffffffffffffff16815260200190815260200160002060008201518160000160006101000a81548173ffffffffffffffffffffffffffffffffffffffff021916908373ffffffffffffffffffffffffffffffffffffffff16021790555060208201518160010155604082015181600201908051906020019061085e9291906118a4565b5060608201518160030160006101000a81548160ff021916908315150217905550905050505050565b600080600060606000806005878154811061089e57fe5b90600052602060002090600d0201600101546005600454815481106108bf57fe5b90600052602060002090600d0201600201546005600454815481106108e057fe5b90600052602060002090600d02016003015460056004548154811061090157fe5b90600052602060002090600d020160040160056004548154811061092157fe5b90600052602060002090600d02016005015460056004548154811061094257fe5b90600052602060002090600d0201600c0160009054906101000a900460ff16828054600181600116156101000203166002900480601f0160208091040260200160405190810160405280929190818152602001828054600181600116156101000203166002900480156109f65780601f106109cb576101008083540402835291602001916109f6565b820191906000526020600020905b8154815290600101906020018083116109d957829003601f168201915b5050505050925095509550955095509550955091939550919395565b336000808273ffffffffffffffffffffffffffffffffffffffff1673ffffffffffffffffffffffffffffffffffffffff16815260200190815260200160002060030160009054906101000a900460ff16610aa1576040517f08c379a0000000000000000000000000000000000000000000000000000000008152600401610a9890611f95565b60405180910390fd5b60058481548110610aae57fe5b90600052602060002090600d020160060160000160009054906101000a900473ffffffffffffffffffffffffffffffffffffffff1673ffffffffffffffffffffffffffffffffffffffff166000803373ffffffffffffffffffffffffffffffffffffffff1673ffffffffffffffffffffffffffffffffffffffff16815260200190815260200160002060000160009054906101000a900473ffffffffffffffffffffffffffffffffffffffff1673ffffffffffffffffffffffffffffffffffffffff1614610bb1576040517f08c379a0000000000000000000000000000000000000000000000000000000008152600401610ba890611fd5565b60405180910390fd5b60008383604051610bc3929190611f41565b604051809103902090508060058681548110610bdb57fe5b90600052602060002090600d0201600a0181905550600260058681548110610bff57fe5b90600052602060002090600d0201600c0160006101000a81548160ff02191690836002811115610c2b57fe5b02179055506000803373ffffffffffffffffffffffffffffffffffffffff1673ffffffffffffffffffffffffffffffffffffffff168152602001908152602001600020600101600081548092919060010191905055503373ffffffffffffffffffffffffffffffffffffffff166108fc60058781548110610ca857fe5b90600052602060002090600d0201600201549081150290604051600060405180830381858888f19350505050158015610ce5573d6000803e3d6000fd5b503373ffffffffffffffffffffffffffffffffffffffff166000803373ffffffffffffffffffffffffffffffffffffffff1673ffffffffffffffffffffffffffffffffffffffff16815260200190815260200160002060000160009054906101000a900473ffffffffffffffffffffffffffffffffffffffff1673ffffffffffffffffffffffffffffffffffffffff167f52d7f066a31e079f6e43b248f26368cab42cb122500c9d24a2989931b553704560056001890381548110610da657fe5b90600052602060002090600d020160020154604051610dc59190612035565b60405180910390a35050505050565b33600260008273ffffffffffffffffffffffffffffffffffffffff1673ffffffffffffffffffffffffffffffffffffffff16815260200190815260200160002060000160149054906101000a900460ff16610e64576040517f08c379a0000000000000000000000000000000000000000000000000000000008152600401610e5b90611f95565b60405180910390fd5b600060646002880281610e7357fe5b049050808701341015610e8557600080fd5b610e8d611924565b600454816020018181525050878160400181815250508681606001818152505085858080601f016020809104026020016040519081016040528093929190818152602001838380828437600081840152601f19601f820116905080830192505050505050508160800181905250838160a001818152505060008161010001906002811115610f1757fe5b90816002811115610f2457fe5b8152505080600560045481548110610f3857fe5b90600052602060002090600d020160008201518160000160008201518160000160006101000a81548173ffffffffffffffffffffffffffffffffffffffff021916908373ffffffffffffffffffffffffffffffffffffffff16021790555060208201518160000160146101000a81548160ff02191690831515021790555050506020820151816001015560408201518160020155606082015181600301556080820151816004019080519060200190610ff29291906118a4565b5060a0820151816005015560c08201518160060160008201518160000160006101000a81548173ffffffffffffffffffffffffffffffffffffffff021916908373ffffffffffffffffffffffffffffffffffffffff1602179055506020820151816001015560408201518160020190805190602001906110739291906118a4565b5060608201518160030160006101000a81548160ff021916908315150217905550505060e082015181600a015561010082015181600c0160006101000a81548160ff021916908360028111156110c557fe5b02179055509050506004600081548092919060010191905055503073ffffffffffffffffffffffffffffffffffffffff163373ffffffffffffffffffffffffffffffffffffffff167f764ad312818a22c29e935d78cfc2bd168ccad1ed0a11583ee15e9a21f5314c3c3460405161113c9190612035565b60405180910390a35050505050505050565b600260003373ffffffffffffffffffffffffffffffffffffffff1673ffffffffffffffffffffffffffffffffffffffff16815260200190815260200160002060000160149054906101000a900460ff16156111de576040517f08c379a00000000000000000000000000000000000000000000000000000000081526004016111d590612015565b60405180910390fd5b33600260003373ffffffffffffffffffffffffffffffffffffffff1673ffffffffffffffffffffffffffffffffffffffff16815260200190815260200160002060000160006101000a81548173ffffffffffffffffffffffffffffffffffffffff021916908373ffffffffffffffffffffffffffffffffffffffff1602179055506001600260003373ffffffffffffffffffffffffffffffffffffffff1673ffffffffffffffffffffffffffffffffffffffff16815260200190815260200160002060000160146101000a81548160ff02191690831515021790555060033390806001815401808255809150509060018203906000526020600020016000909192909190916101000a81548173ffffffffffffffffffffffffffffffffffffffff021916908373ffffffffffffffffffffffffffffffffffffffff16021790555050565b6003818154811061132f57fe5b906000526020600020016000915054906101000a900473ffffffffffffffffffffffffffffffffffffffff1681565b33600260008273ffffffffffffffffffffffffffffffffffffffff1673ffffffffffffffffffffffffffffffffffffffff16815260200190815260200160002060000160149054906101000a900460ff166113ee576040517f08c379a00000000000000000000000000000000000000000000000000000000081526004016113e590611f95565b60405180910390fd5b816000808273ffffffffffffffffffffffffffffffffffffffff1673ffffffffffffffffffffffffffffffffffffffff16815260200190815260200160002060030160009054906101000a900460ff1661147d576040517f08c379a000000000000000000000000000000000000000000000000000000000815260040161147490611f95565b60405180910390fd5b3373ffffffffffffffffffffffffffffffffffffffff16600585815481106114a157fe5b90600052602060002090600d020160000160000160009054906101000a900473ffffffffffffffffffffffffffffffffffffffff1673ffffffffffffffffffffffffffffffffffffffff161461152c576040517f08c379a000000000000000000000000000000000000000000000000000000000815260040161152390611f75565b60405180910390fd5b6005848154811061153957fe5b90600052602060002090600d0201600b0160008473ffffffffffffffffffffffffffffffffffffffff1673ffffffffffffffffffffffffffffffffffffffff16815260200190815260200160002060000160009054906101000a900473ffffffffffffffffffffffffffffffffffffffff1673ffffffffffffffffffffffffffffffffffffffff166000808573ffffffffffffffffffffffffffffffffffffffff1673ffffffffffffffffffffffffffffffffffffffff16815260200190815260200160002060000160009054906101000a900473ffffffffffffffffffffffffffffffffffffffff1673ffffffffffffffffffffffffffffffffffffffff1614611679576040517f08c379a000000000000000000000000000000000000000000000000000000000815260040161167090611fb5565b60405180910390fd5b6000808473ffffffffffffffffffffffffffffffffffffffff1673ffffffffffffffffffffffffffffffffffffffff168152602001908152602001600020600585815481106116c457fe5b90600052602060002090600d02016006016000820160009054906101000a900473ffffffffffffffffffffffffffffffffffffffff168160000160006101000a81548173ffffffffffffffffffffffffffffffffffffffff021916908373ffffffffffffffffffffffffffffffffffffffff160217905550600182015481600101556002820181600201908054600181600116156101000203166002900461176d92919061198a565b506003820160009054906101000a900460ff168160030160006101000a81548160ff0219169083151502179055509050506001600585815481106117ad57fe5b90600052602060002090600d0201600c0160006101000a81548160ff021916908360028111156117d957fe5b021790555050505050565b828054600181600116156101000203166002900490600052602060002090601f016020900481019282601f1061182557803560ff1916838001178555611853565b82800160010185558215611853579182015b82811115611852578235825591602001919060010190611837565b5b5090506118609190611a11565b5090565b6040518060800160405280600073ffffffffffffffffffffffffffffffffffffffff16815260200160008152602001606081526020016000151581525090565b828054600181600116156101000203166002900490600052602060002090601f016020900481019282601f106118e557805160ff1916838001178555611913565b82800160010185558215611913579182015b828111156119125782518255916020019190600101906118f7565b5b5090506119209190611a11565b5090565b604051806101200160405280611938611a36565b81526020016000815260200160008152602001600081526020016060815260200160008152602001611968611a68565b8152602001600080191681526020016000600281111561198457fe5b81525090565b828054600181600116156101000203166002900490600052602060002090601f016020900481019282601f106119c35780548555611a00565b82800160010185558215611a0057600052602060002091601f016020900482015b828111156119ff5782548255916001019190600101906119e4565b5b509050611a0d9190611a11565b5090565b611a3391905b80821115611a2f576000816000905550600101611a17565b5090565b90565b6040518060400160405280600073ffffffffffffffffffffffffffffffffffffffff1681526020016000151581525090565b6040518060800160405280600073ffffffffffffffffffffffffffffffffffffffff16815260200160008152602001606081526020016000151581525090565b600081359050611ab7816121a0565b92915050565b60008083601f840112611acf57600080fd5b8235905067ffffffffffffffff811115611ae857600080fd5b602083019150836001820283011115611b0057600080fd5b9250929050565b600081359050611b16816121b7565b92915050565b60008060208385031215611b2f57600080fd5b600083013567ffffffffffffffff811115611b4957600080fd5b611b5585828601611abd565b92509250509250929050565b600060208284031215611b7357600080fd5b6000611b8184828501611b07565b91505092915050565b60008060408385031215611b9d57600080fd5b6000611bab85828601611b07565b9250506020611bbc85828601611aa8565b9150509250929050565b600080600060408486031215611bdb57600080fd5b6000611be986828701611b07565b935050602084013567ffffffffffffffff811115611c0657600080fd5b611c1286828701611abd565b92509250509250925092565b600080600080600060808688031215611c3657600080fd5b6000611c4488828901611b07565b9550506020611c5588828901611b07565b945050604086013567ffffffffffffffff811115611c7257600080fd5b611c7e88828901611abd565b93509350506060611c9188828901611b07565b9150509295509295909350565b611ca7816120df565b82525050565b6000611cb983856120c3565b9350611cc6838584612140565b82840190509392505050565b611cdb8161212e565b82525050565b6000611cec826120b8565b611cf681856120ce565b9350611d0681856020860161214f565b611d0f81612182565b840191505092915050565b6000611d276026836120ce565b91507f766f7573206e206574657320706173206f776e6572206465206365747465206460008301527f656d616e646500000000000000000000000000000000000000000000000000006020830152604082019050919050565b6000611d8d600e836120ce565b91507f696e7363726976657a20766f75730000000000000000000000000000000000006000830152602082019050919050565b6000611dcd603e836120ce565b91507f696c6c757374726174657572206e6520666967757265207061732064616e732060008301527f6c65732063616e6469646174732064652063657474652064656d616e646500006020830152604082019050919050565b6000611e336035836120ce565b91507f766f7573206e276574657320706173206c652063616e64696461742063686f6960008301527f736920706f75722063657474652064656d616e646500000000000000000000006020830152604082019050919050565b6000611e996029836120ce565b91507f766f7573206e276176657a20706173206c612072c3a97075746174696f6e207160008301527f7527696c206661757400000000000000000000000000000000000000000000006020830152604082019050919050565b6000611eff6018836120ce565b91507f766f757320c3aa7465732064c3a96a6120696e736372697400000000000000006000830152602082019050919050565b611f3b81612124565b82525050565b6000611f4e828486611cad565b91508190509392505050565b6000602082019050611f6f6000830184611c9e565b92915050565b60006020820190508181036000830152611f8e81611d1a565b9050919050565b60006020820190508181036000830152611fae81611d80565b9050919050565b60006020820190508181036000830152611fce81611dc0565b9050919050565b60006020820190508181036000830152611fee81611e26565b9050919050565b6000602082019050818103600083015261200e81611e8c565b9050919050565b6000602082019050818103600083015261202e81611ef2565b9050919050565b600060208201905061204a6000830184611f32565b92915050565b600060c0820190506120656000830189611f32565b6120726020830188611f32565b61207f6040830187611f32565b81810360608301526120918186611ce1565b90506120a06080830185611f32565b6120ad60a0830184611cd2565b979650505050505050565b600081519050919050565b600081905092915050565b600082825260208201905092915050565b60006120ea82612104565b9050919050565b60008190506120ff82612193565b919050565b600073ffffffffffffffffffffffffffffffffffffffff82169050919050565b6000819050919050565b6000612139826120f1565b9050919050565b82818337600083830152505050565b60005b8381101561216d578082015181840152602081019050612152565b8381111561217c576000848401525b50505050565b6000601f19601f8301169050919050565b6003811061219d57fe5b50565b6121a9816120df565b81146121b457600080fd5b50565b6121c081612124565b81146121cb57600080fd5b5056fea365627a7a723158203eb19de6812b10f9cfeb7fdaf9cc89e38c59f818ece3e521a222dee794e066ab6c6578706572696d656e74616cf564736f6c63430005100040",
  "source": "pragma solidity >= 0.5.16 <= 0.6.3;\n    pragma experimental ABIEncoderV2;\n    \n     contract MarketPlace {\n\n        \n\n        enum EtatDemande { OUVERTE, ENCOURS, FERMEE }\n\n        \n\n         struct Illustrateur {\n\n            address adresseIllustrateur;\n\n            uint reputation; //Pour reprsenter la rputation, nous allons associer chaque utilisateur  une valeur entire\n\n            string nom ;//Un nom est aussi associ  ladresse\n\n            bool estMembre; // si il est membre ou pas\n\n        }\n\n        \n\n        struct Demandeur {\n\n            address adresseDemandeur;\n\n            bool estInscrit;\n\n        }\n\n        \n\n        struct Demande {\n\n          Demandeur demandeur;\n\n          uint id; // id de la demande\n\n          uint remuneration ;       // (en wei)\n\n          uint delai ;              //seconds\n\n          string description;       //(champ texte)\n\n          uint reputationMinumum;   //Dfinir une rputation minimum pour pouvoir postuler\n\n          Illustrateur candidatChoisi;\n\n          bytes32 hashLienLivraison;\n\n          mapping (address => Illustrateur) candidats;\n\n          EtatDemande etatDemande  ;//Dfinir une rputation minimum pour pouvoir postuler\n\n        }\n\n        \n\n        mapping (address => Illustrateur) illustrateurs;\n\n        address[] public illustrateursAccts;\n\n        mapping (address => Demandeur) demandeurs;\n\n        address[] public demandeursAccts;\n\n        uint public indexDemande;\n\n        Demande[] demandes;\n\n        \n\n        event DeposerRemuneration(address indexed _from,address indexed _to,uint _value );\n\n        event PayerRemuneration(address indexed _to,address indexed _from,uint _value );\n\n        \n\n        modifier illustrateurInscrit(address addressIllustrateur){\n\n            require(illustrateurs[addressIllustrateur].estMembre, \"inscrivez vous\");\n\n            _;\n\n        }\n\n\n        modifier demandeurInscrit(address addressDemandeur){\n\n            require(demandeurs[addressDemandeur].estInscrit, \"inscrivez vous\");\n\n            _;\n\n        }\n\n        //Lorsquun nouveau participant rejoint la plateforme, il appelle la fonction inscription() qui lui donne une rputation de 1. Il\n\n        function inscription(string calldata nom) external {\n\n            // on verifie si il est membre ou pas \n\n            require(!(illustrateurs[msg.sender].estMembre), \"vous tes dja inscrit\");\n\n            illustrateurs[msg.sender].adresseIllustrateur = msg.sender;\n\n            illustrateurs[msg.sender].reputation = 1;\n\n            illustrateurs[msg.sender].nom = nom;\n\n            illustrateurs[msg.sender].estMembre = true;\n\n            illustrateursAccts.push(msg.sender);\n\n        }\n\n        function inscriptionDemandeur() external {\n\n            require(!(demandeurs[msg.sender].estInscrit),\"vous tes dja inscrit\");\n\n            demandeurs[msg.sender].adresseDemandeur = msg.sender;\n\n            demandeurs[msg.sender].estInscrit = true;\n\n            demandeursAccts.push(msg.sender);\n\n        }\n\n        \n\n        \n\n        function ajouterDemande(uint _remuneration, uint _delai, string calldata _description, uint _reputationMinumum) \n\n        external payable demandeurInscrit(msg.sender){\n\n            uint frais = _remuneration * 2/100;\n\n            require(msg.value >= _remuneration + frais);\n            \n            Demande memory demande;\n\n            demande.id = indexDemande;\n\n            demande.remuneration = _remuneration;\n\n            demande.delai = _delai;\n\n            demande.description = _description;\n\n            demande.reputationMinumum = _reputationMinumum;\n\n            demande.etatDemande = EtatDemande.OUVERTE;\n\n            demandes[indexDemande]= demande;\n            \n            indexDemande++;\n            \n            emit DeposerRemuneration(msg.sender,address(this), msg.value);\n\n        }\n       \n        function getDemandes(uint _indexDemande) public view returns (uint, uint, uint, string memory, uint, EtatDemande){\n            \n            return(demandes[_indexDemande].id,demandes[indexDemande].remuneration,demandes[indexDemande].delai,\n            demandes[indexDemande].description,demandes[indexDemande].reputationMinumum,demandes[indexDemande].etatDemande);    \n        }\n        \n       \n        ///----------------Mcanisme de contractualisation\n\n    //Crer une fonction postuler() qui permet  un indpendant de proposer ses services. \n\n    //Il est alors ajout  la liste des candidats.\n\n    function postuler(uint idDemande) external illustrateurInscrit(msg.sender) {\n\n        require(illustrateurs[msg.sender].reputation >= demandes[idDemande].reputationMinumum, \n\n        \"vous n'avez pas la rputation qu'il faut\");\n\n        Illustrateur memory candidat;\n\n        candidat = illustrateurs[msg.sender];\n\n        demandes[idDemande].candidats[msg.sender] = candidat;\n\n    }\n\n\n\n    //Crer une fonction accepterOffre() qui permet  lentreprise daccepter un illustrateur. \n\n    //La demande est alors ENCOURS jusqu sa remise\n\n    //enum EtatDemande { OUVERTE, ENCOURS, FERMEE } \n\n    //EtatDemande etatDemande  ;\n\n    function accepterOffre(uint idDemande, address addressCandidat ) \n\n        external demandeurInscrit(msg.sender) illustrateurInscrit(addressCandidat) {\n\n        require(demandes[idDemande].demandeur.adresseDemandeur == msg.sender,\n\n        \"vous n etes pas owner de cette demande\");\n\n        require(illustrateurs[addressCandidat].adresseIllustrateur == demandes[idDemande].candidats[addressCandidat].adresseIllustrateur,\n\n        \"illustrateur ne figure pas dans les candidats de cette demande\");\n\n        demandes[idDemande].candidatChoisi = illustrateurs[addressCandidat];\n\n        demandes[idDemande].etatDemande = EtatDemande.ENCOURS;\n\n    }\n\n\n\n    //Ecrire une fonction livraison() qui permet  lillustrateur de remettre le hash du lien o se trouve son travail. \n\n    //Les fonds sont alors automatiquement dbloqus et peuvent tre retirs par lillustrateur. \n\n    //Lillustrateur gagne aussi un point de rputation\n\n    function livraison(uint idDemande,string calldata lienLivraison) external payable illustrateurInscrit(msg.sender) {\n\n        require(illustrateurs[msg.sender].adresseIllustrateur == demandes[idDemande].candidatChoisi.adresseIllustrateur,\n\n        \"vous n'etes pas le candidat choisi pour cette demande\");\n\n        bytes32 hashLienLivraison = keccak256(bytes(lienLivraison));\n\n        demandes[idDemande].hashLienLivraison = hashLienLivraison;\n\n        demandes[idDemande].etatDemande = EtatDemande.FERMEE;\n\n        illustrateurs[msg.sender].reputation ++;\n\n        \n\n        msg.sender.transfer(demandes[idDemande].remuneration);\n\n        emit PayerRemuneration(illustrateurs[msg.sender].adresseIllustrateur, msg.sender, demandes[idDemande-1].remuneration);\n\n    }\n\n\n\n    }",
  "sourcePath": "C:\\Users\\ELIE\\exercices-alyra\\defi2\\placemarket\\contracts\\MarketPlace.sol",
  "compiler": {
    "name": "solc",
    "version": "0.5.16+commit.9c3226ce.Emscripten.clang"
  },
  "schemaVersion": "3.1.0",
  "updatedAt": "2020-05-22T01:45:15.580Z",
  "devdoc": {
    "methods": {}
  },
  "userdoc": {
    "methods": {
      "postuler(uint256)": {
        "notice": "----------------Mcanisme de contractualisation"
      }
    }
  }
}